:100000000CC004C004C004C004C004C018951895F6
:10001000189518953F5F2F4F189502E003BF05B75D
:1000200000620F7E05BF02E009BF43984798409ADF
:10003000419A439A469AB998C19800270EBBBA9A3A
:10004000BB9ABC9A789443E058EE33272227439812
:100050004798409A419A439AE8940FF4689444234D
:1000600009F4552359F00AE602BF78948895F8946C
:1000700002B70A36D0F751504040F4CF0EF47894CE
:100080004398479A73E088EE6627271709F43817D4
:1000900024F0639588537F4FFBCF660F660F68BBD4
:0400A000D2CFFFCFED
:00000001FF
